:100000000C9430000C944D000C944D000C94BB03E8
:100010000C944D000C944D000C944D000C944D002C
:100020000C944D000C944D000C944D000C944D001C
:100030000C944D000C944D000C944D000C944D000C
:100040000C944D000C944D000C944D000C944D00FC
:100050000C944D0084210C3003C0124822444422E9
:1000600011241FBECFE5D4E0DEBFCDBF10E0A0E677
:10007000B0E0E6E0FBE102C005900D92AA36B107C0
:10008000D9F710E0AAE6B0E001C01D92AB38B10785
:10009000E1F70E94FB0B0C94820D0C940000049776
:1000A00088F477FD0FC06430710564F457FD0AC011
:1000B00090E0443051050CF091E081E09827892FC1
:1000C00090E0089580E090E00895EF92FF920F9302
:1000D0001F93CF93DF937C018B01EA010E944F00B5
:1000E000882309F411C0CC0FDD1FCC0FDD1FC00F1A
:1000F000D11FC658DF4F888190E002C09595879543
:10010000EA94E2F781709070DF91CF911F910F9187
:10011000FF90EF900895EF92FF920F931F93CF936C
:10012000DF937C018B01EA010E944F008823A1F03C
:10013000FE01EE0FFF1FEE0FFF1FE00FF11FE6584D
:10014000FF4F208181E090E002C0880F991FEA9460
:10015000E2F7809582238083DF91CF911F910F91E9
:10016000FF90EF900895EF92FF920F931F93CF931C
:10017000DF937C018B01EA010E944F00882399F0F4
:10018000FE01EE0FFF1FEE0FFF1FE00FF11FE658FD
:10019000FF4F208181E090E002C0880F991FEA9410
:1001A000E2F7282B2083DF91CF911F910F91FF90D1
:1001B000EF9008952130310519F40E94B30008959D
:1001C0000E948B000895EF92FF920F931F93CF939D
:1001D000DF937C018B01EA010E944F00882399F094
:1001E000FE01EE0FFF1FEE0FFF1FE00FF11FE6589D
:1001F000FF4F208181E090E002C0880F991FEA94B0
:10020000E2F728272083DF91CF911F910F91FF9074
:10021000EF900895FC01EE0FFF1FEE0FFF1FE65851
:10022000FF4F8FE080838183828383830895FC0165
:10023000EE0FFF1FEE0FFF1FE658FF4F10821182D7
:1002400012821382089540E050E061E070E002C045
:10025000660F771F8A95E2F712C0FD01E20FF31FC8
:10026000E658FF4F8081862B80832F5F3F4F2430DD
:10027000310599F74F5F5F4F4430510541F020E061
:1002800030E0DA01AA0FBB1FAA0FBB1FE6CF08950B
:1002900060E070E021E030E002C0220F331F8A9559
:1002A000E2F7209512C0FD01E40FF51FE658FF4F5D
:1002B0008081822380834F5F5F4F4430510599F7DF
:1002C0006F5F7F4F6430710541F040E050E0DB012B
:1002D000AA0FBB1FAA0FBB1FE6CF0895FC01E6586B
:1002E000FF4F8FE080838483808784870895FC019B
:1002F000E658FF4F10821482108614860895EF92FC
:10030000FF920F931F93CF93DF93EB017A01082F96
:1003100010E080E00036180751F41416150624F496
:10032000CB010E94230103C0CB010E94480180E061
:100330000236180781F4FE01E658FF4F1E141F0411
:1003400034F48FE0808384838087848704C01082A4
:1003500014821086148604561040C1F4BE01660F44
:10036000771F660F771F1E141F044CF4FB01E6581D
:10037000FF4F8FE0808381838283838307C0FB01EB
:10038000E658FF4F1082118212821382DF91CF91C3
:100390001F910F91FF90EF900895AF92BF92CF926F
:1003A000DF92EF92FF920F931F93CF93DF935C0145
:1003B0006B0179012417350714F47A01A901EA01C8
:1003C00007C09801AE01B601C5010E94DA0021966E
:1003D000EC16FD06B4F7DF91CF911F910F91FF90BE
:1003E000EF90DF90CF90BF90AF900895AF92BF9203
:1003F000CF92DF92EF92FF920F931F93CF93DF93F1
:100400005C016B0179012417350714F47A01A90105
:10041000EA0107C09801A501B601CE010E94DA00E9
:100420002196EC16FD06B4F7DF91CF911F910F9145
:10043000FF90EF90DF90CF90BF90AF900895AF9274
:10044000BF92CF92DF92EF92FF920F931F93CF93C1
:10045000DF935C016B0179012417350714F47A01ED
:10046000A901EA0107C09801A501BE01C6010E94C9
:10047000DA002196EC16FD06B4F7DF91CF911F91BB
:100480000F91FF90EF90DF90CF90BF90AF900895C5
:100490002F923F924F925F926F927F928F929F9294
:1004A000AF92BF92CF92DF92EF92FF920F931F9382
:1004B000CF93DF93CDB7DEB728970FB6F894DEBFA2
:1004C0000FBECDBF7A01402F8C010E191F0917FFF7
:1004D00003C0109501951F4F4B01821A930A97FE96
:1004E00004C090948194910893948E159F0544F0D4
:1004F00091E0292E312C81E090E09E838D8307C00E
:1005000022242A94322CEFEFFFEFFE83ED83621753
:1005100073073CF081E0482E512CB1E06B2E712C1A
:1005200006C044244A94542C66246A94762C0815F8
:10053000190584F0C80162E070E00E94C80C6B01EC
:1005400058019C828B821A830983222433246624D7
:1005500077240CC06401D594C79454011C830B8389
:100560009A8289821E821D824424552487013887FD
:100570002F8388249924E42EFF24F4E6EF16F0E07C
:10058000FF06E1F443E050E06F817885C8010E94E6
:10059000B30042E050E06F817885C8010E94B3004B
:1005A00041E050E06F817885C8010E94B30040E0CF
:1005B00050E06F817885C8010E94B30080E6E8169C
:1005C00080E0F806E1F44F81588563E070E0C801EF
:1005D0000E94B3004F81588562E070E0C8010E941C
:1005E000B3004F81588561E070E0C8010E94B300FC
:1005F0004F81588560E070E0C8010E94B30092E628
:10060000E91690E0F906E1F4A8016F81788583E0AE
:1006100090E00E94B300A8016F81788582E090E0AD
:100620000E94B300A8016F81788581E090E00E946C
:10063000B300A8016F81788580E090E00E94B3004C
:10064000EB81FC81CE0EDF1ECA14DB0454F0CA1805
:10065000DB08020D131D8F819885840D951D9887E9
:100660008F83ED81FE810E0F1F1F8F819885860D70
:10067000971D98878F830894811C911CE981FA81CA
:10068000E815F9050CF079CF28960FB6F894DEBF7F
:100690000FBECDBFDF91CF911F910F91FF90EF90D3
:1006A000DF90CF90BF90AF909F908F907F906F9092
:1006B0005F904F903F902F900895CF93DF9320E06D
:1006C00030E0F901EE0FFF1FEE0FFF1FDF01A6590B
:1006D000BF4F8C91E658FF4F8083ED018981818364
:1006E0008A8182838B8183832F5F3F4F2430310542
:1006F00041F7DF91CF910895CF93DF9320E030E071
:10070000F901EE0FFF1FEE0FFF1FDF01A658BF4FCD
:100710008C91E659FF4F8083ED01898181838A8125
:1007200082838B8183832F5F3F4F2430310541F7D4
:10073000DF91CF91089520E030E0F901EE0FFF1F27
:10074000EE0FFF1FE658FF4F8083818382838383F0
:100750002F5F3F4F2430310581F708950895882396
:1007600011F4C1980895C19A0895882311F4C0988E
:100770000895C09A08951F920F920FB60F921124F8
:100780002F933F934F938F939F93EF93FF9382B356
:100790008F7082BBE0918A00F0E0EE0FFF1FEE0F3A
:1007A000FF1FE658FF4F9081E0918A00F0E0EE0FC6
:1007B000FF1FEE0FFF1FE658FF4F81818295807F5C
:1007C0009F70892B85BBE0918A00F0E0EE0FFF1F40
:1007D000EE0FFF1FE658FF4F9281E0918A00F0E094
:1007E000EE0FFF1FEE0FFF1FE658FF4F838182952C
:1007F000807F9F70892B8BBB42B380918A0027E05A
:1008000030E0281B310981E090E002C0880F991F79
:100810002A95E2F7482B42BB80918A008F5F809334
:100820008A0080918A00843011F410928A00FF912E
:10083000EF919F918F914F913F912F910F900FBE0C
:100840000F901F9018959FEF9ABB87EF87BB94BBC3
:1008500091BB1BBA15BA88E088BB12BA14BC89B721
:10086000806889BF8FE083BD85E085BD85B58860E0
:1008700085BD10BC8FE589B986E880BD88E18AB95D
:100880001CB8089501C00197009759F020E00000BE
:10089000000000000000000000002F5F2A3599F3DF
:1008A000F6CF0895CF93DF93C09AC0E0D0E088EEF2
:1008B00093E00E944204C098C19A88EE93E00E949F
:1008C0004204C198C09A2196C230D10581F788EEC2
:1008D00093E00E944204C098DF91CF9108950F9356
:1008E0001F93CF93DF9380E00E949B0300E010E012
:1008F0004CC080E00E949B03CE010E9442048FEF17
:100900000E949B0384E690E00E9442049E012F50C7
:100910003040CE016AE070E00E94C80C88EE93E09F
:100920000E94C80CE901C61BD70B1C161D060CF350
:1009300088EE93E00E944204CEEED2E080E00E9476
:100940009B038FEE92E08C1B9D0B0E9442048FEF65
:100950000E949B0384E690E00E9442049E012F5077
:100960003040CE016AE070E00E94C80C88EE93E04F
:100970000E94C80CE901C61BD70B1C161D06F4F219
:100980000F5F1F4F0530110519F0CEEED2E0B1CF49
:10099000DF91CF911F910F910895CF93DF9380E066
:1009A0000E949B0380ED97E00E944204C0E0D0E0EB
:1009B0008FEF0E949B0382E390E00E94420480E05C
:1009C0000E949B038CED95E00E9442048FEF0E94F1
:1009D0009B038EE190E00E94420480E00E949B0312
:1009E00088E59BE10E9442042196C330D10501F7BE
:1009F000DF91CF910895CF92DF92EF92FF920F9304
:100A00001F93CF93DF93F82EE62E6A0180E00E94B9
:100A10009B0300E010E0EE2011F4E80104C0C3E005
:100A2000D0E0C01BD10B41E050E0BE018F2D0E94F1
:100A30007F01C6010E94420440E050E0BE018F2DBC
:100A40000E947F010F5F1F4F0430110521F702E064
:100A500010E0EE2011F4E80104C0C3E0D0E0C01BB8
:100A6000D10B41E050E0BE018F2D0E947F01C601F5
:100A70000E94420440E050E0BE018F2D0E947F01A1
:100A8000015010408FEF0F3F180719F7DF91CF91FA
:100A90001F910F91FF90EF90DF90CF9008950F93EB
:100AA0001F93CF93DF938C0180E00E949B03C0E0F3
:100AB000D0E00AC0C801880F991F800F911F0E94C3
:100AC0004204C0E0D0E014C0FE01EE0FFF1FEE0FA5
:100AD000FF1FE658FF4F8FEF8083818382838383DC
:100AE000C8010E9442042196C430D10519F3ECCF0D
:100AF000FE01EE0FFF1FEE0FFF1FE658FF4F1082A3
:100B0000118212821382C8010E9442042196C430CD
:100B1000D10571F7DF91CF911F910F9108959F92A9
:100B2000AF92BF92CF92DF92EF92FF920F931F93FB
:100B3000CF93DF93942E590100E010E0C62EDD2400
:100B4000E82EFF2483E0981669F4C3E0D0E0C01BD0
:100B5000D10B44E050E0401B510BB601C7010E948D
:100B60008B0008C0A80141505040B601C7010E9447
:100B70008B00E801AE01B601C7010E94B300C501B8
:100B80000E9442040F5F1F4F04301105D9F6DF9118
:100B9000CF911F910F91FF90EF90DF90CF90BF907A
:100BA000AF909F900895EF92FF920F931F93CF9372
:100BB000DF937B018A01C0E0D0E014C0F901EE0FA1
:100BC000FF1FEE0FFF1FE658FF4F508341839283B4
:100BD00083832F5F3F4F2430310581F7C8010E9486
:100BE00042042196CE15DF05CCF4CE0166E070E01C
:100BF0000E94C80CFC01EE0FFF1FCF018B5A9F4FC4
:100C000020E030E0EC5AFF4F4491542F52955F7032
:100C1000FC018491982F92959F70D0CFDF91CF9156
:100C20001F910F91FF90EF900895EF92FF920F9315
:100C30001F93CF93DF937B018A01C0E0D0E031C0E6
:100C400020E030E0C9018C0F9D1F66E070E00E943B
:100C5000C80CAC01440F551FCA018C5A9F4FFC01B0
:100C60009491892F82958F70D901AA0FBB1FAA0F6B
:100C7000BB1FA658BF4F8C93FD0191834B5A5F4F0A
:100C8000FA019491892F82958F70FD01828393835D
:100C90002F5F3F4F24303105A9F6C8010E9442045E
:100CA0002196CE15DF0564F2DF91CF911F910F9150
:100CB000FF90EF9008952F923F924F925F926F9224
:100CC0007F928F929F92AF92BF92CF92DF92EF92DC
:100CD000FF920F931F93CF93DF93CDB7DEB7EA97C1
:100CE0000FB6F894DEBF0FBECDBF9DAB8CAB7FAB14
:100CF0006EAB28AF80E00E949B03FE013196AF01EE
:100D00009E012F5C3F4F84E090E09183808393832A
:100D100082839583848336965AAB49AB1901E217D7
:100D2000F30789F70E94B80C64E070E00E94C80CD9
:100D30006C010E94B80C64E070E00E94C80C5C0179
:100D40000E94B80C64E070E00E94C80C7C0171E065
:100D5000872E912C61E0462E512C51E0652E712C8E
:100D600089A99AA90C979AAF89AF08C20E94B80CBA
:100D700063E070E00E94C80C892B69F50E94B80CF2
:100D800063E070E00E94C80C009759F40E94B80C10
:100D900063E070E00E94C80C4C010894810891083F
:100DA0001AC08130910559F40E94B80C63E070E0DC
:100DB0000E94C80C2C010894410851080CC00297ED
:100DC00051F40E94B80C63E070E00E94C80C3C0132
:100DD0000894610871089FEF89169FEF990699F4AE
:100DE000A114B10481F40E94B80C63E070E00E9489
:100DF000C80C019721F441E0842E912C02C0882474
:100E0000992411E001C010E0EFEF4E16EFEF5E06FF
:100E100099F4C114D10481F40E94B80C63E070E02D
:100E20000E94C80C019721F431E0432E512C02C0DE
:100E30004424552401E001C000E0FFEF6F16FFEFEE
:100E40007F06B1F4E114F10499F40E94B80C63E058
:100E500070E00E94C80C019731F421E0622E712CE1
:100E600081E08BAB06C06624772491E09BAB01C088
:100E70001BAAE1E08E16910499F4F3E0AF16B104D9
:100E800079F40E94B80C63E070E00E94C80C0197EE
:100E900021F488248A94982C02C08824992411E093
:100EA00081E04816510499F493E0C916D10479F40D
:100EB0000E94B80C63E070E00E94C80C019721F416
:100EC00044244A94542C02C04424552401E0E1E017
:100ED0006E167104B1F4F3E0EF16F10491F40E9480
:100EE000B80C63E070E00E94C80C019731F46624EE
:100EF0006A94762C81E08BAB04C06624772491E061
:100F00009BAB112351F14114510491F4E3E0CE164F
:100F1000D10439F0C114D10441F00E94B80C80FD15
:100F200004C044244A94542C03C091E0492E512C0F
:100F30006114710491F4F3E0EF16F10439F0E11457
:100F4000F10441F00E94B80C80FD04C066246A944C
:100F5000762C03C081E0682E712C002351F181149E
:100F6000910491F483E0A816B10439F0A114B104FE
:100F700041F00E94B80C80FD04C088248A94982C0B
:100F800003C001E0802E912C6114710491F493E070
:100F9000E916F10439F0E114F10441F00E94B80CB3
:100FA00080FD04C066246A94762C03C011E0612E93
:100FB000712CEBA9EE2379F14114510491F4F3E083
:100FC000CF16D10439F0C114D10441F00E94B80CFD
:100FD00080FD04C044244A94542C03C0B1E04B2E3D
:100FE000512C81149104B9F483E0A816B10421F4C2
:100FF00088248A94982C2CC0A114B10421F4A1E077
:101000008A2E912C0BC00E94B80C80FDBDC0882494
:101010008A94982C48C0A114B104B1F4C114D1042D
:1010200041F4E114F10451F193E0E916F10461F4A3
:1010300025C0E3E0CE16D10439F4E114F104F1F057
:10104000F3E0EF16F104D1F083E0A816B10459F5EE
:10105000C114D10441F4E114F10481F093E0E916E4
:10106000F10409F50BC0E3E0CE16D104E1F4E1147C
:10107000F10421F0F3E0EF16F104A9F40E94B80C9A
:1010800063E070E00E94C80C009719F4882499244A
:101090000AC08130910519F44424552404C00297F4
:1010A00011F466247724A80CB91CC40CD51CE60CDA
:1010B000F71C88AD813079F4A701B601C5010E9403
:1010C000B3008EA99FA90E944204A701B601C501E1
:1010D0000E948B004EC098AD923051F4A701B6012A
:1010E000C5010E94E3008EA99FA90E94420441C04D
:1010F000E8ADE330F1F5FE01B596808191819783EB
:10110000868382819381918780878481958193876B
:101110008287369789AD9AADE817F90771F7BA82D9
:10112000A982DC82CB82FE82ED8209A91AA9F8018C
:101130004481558162817381808191810E94B300D5
:101140000A5F1F4F0215130591F78EA99FA90E94F0
:10115000420409A91AA9F801448155816281738169
:10116000808191810E948B000A5F1F4F0215130539
:1011700091F78CA99DA901979DAB8CABECA9FDA91A
:10118000EF2B09F0F3CD04C0F1E08F2E912C8BCF23
:10119000EA960FB6F894DEBF0FBECDBFDF91CF91B8
:1011A0001F910F91FF90EF90DF90CF90BF90AF9085
:1011B0009F908F907F906F905F904F903F902F9077
:1011C00008958F929F92AF92BF92CF92DF92EF924B
:1011D000FF920F931F93CF93DF934C016B01AA24CF
:1011E000BB240E94B80C64E070E00E94C80C7C0133
:1011F0000E94B80C64E070E00E94C80C8C010E9450
:10120000B80C64E070E00E94C80CEC01C114D10479
:1012100041F4AC01B801C7010E9465008130C1F4FE
:101220000BC081E0C816D10499F4AE01B801C70122
:101230000E946500882361F49601AE01B801C701E0
:101240000E94DA00C4010E9442040894A11CB11C4F
:101250008FE3A816B1042CF2DF91CF911F910F916B
:10126000FF90EF90DF90CF90BF90AF909F908F90C6
:1012700008954F925F926F927F928F929F92AF925A
:10128000BF92CF92DF92EF92FF920F931F93CF9373
:10129000DF932C013B014A015901CC24DD2429C0F4
:1012A0000E94B80C8C010E94B80C7C010E94B80C02
:1012B0009C01C80164E070E00E94C80C8C01C70169
:1012C00064E070E00E94C80CFC01C90164E070E0B9
:1012D0000E94C80C9501A801BF010E94DA00219666
:1012E0006C167D06ECF6C4010E9442040894C11CF1
:1012F000D11CC414D5041CF4C0E0D0E0F1CFDF91C0
:10130000CF911F910F91FF90EF90DF90CF90BF9002
:10131000AF909F908F907F906F905F904F900895C7
:101320004F925F926F927F928F929F92AF92BF92F5
:10133000CF92DF92EF92FF920F931F93CF93DF93A1
:101340002C013B014A01AA24BB242BC00E94B80CEB
:101350008C010E94B80C7C010E94B80C6C01C80181
:1013600064E070E00E94C80CFC01C70164E070E01A
:101370000E94C80C9C01C60164E070E00E94C80C89
:10138000AF01B9010E94B30021966C167D06F4F6F8
:10139000C4010E94420480E00E949B030894A11CA7
:1013A000B11CA414B5041CF4C0E0D0E0EECFDF9172
:1013B000CF911F910F91FF90EF90DF90CF90BF9052
:1013C000AF909F908F907F906F905F904F90089517
:1013D000CF93DF93C1E0D0E044EF51E0BE0185E060
:1013E00090E00E9490092196C431D105A9F744EFFD
:1013F00051E0BE0185E090E00E9490092197B9F785
:10140000DF91CF9108954F925F926F927F928F926A
:101410009F92AF92BF92CF92DF92EF92FF920F9383
:101420001F93CF93DF933C015B014A0180E00E9450
:101430009B0300E010E04FC00E94B80C80FD03C089
:1014400040E050E002C043E050E0BE01C8010E940D
:10145000B3002196C430D10579F70F5F1F4F0430D8
:101460001105C9F5CC24DD2430C00E94B80CEC0174
:101470000E94B80C64E070E00E94C80C8C01E82E59
:10148000851501F1CE0164E070E00E94C80CEC010A
:10149000F82E8415B9F0602F70E040E050E090E045
:1014A0000E946500882319F0950140E002C0950173
:1014B00043E0602F8C2F0E948F05C4010E944204DC
:1014C0004F2C5E2C0894C11CD11C8C2D90E08615ED
:1014D00097055CF203C0C0E0D0E0AECFDF91CF91C2
:1014E0001F910F91FF90EF90DF90CF90BF90AF9042
:1014F0009F908F907F906F905F904F9008956F9224
:101500007F928F929F92AF92BF92CF92DF92EF9293
:10151000FF920F931F93CF93DF933C014B015A012E
:10152000690180E00E949B03EE24FF244BC00E94CF
:10153000B80C64E070E00E94C80C8C010E94B80CEA
:1015400064E070E00E94C80C43E050E0B8010E94E3
:10155000B300C5010E944204C1E0D0E048C0FD01D3
:10156000E20FF31FE658FF4F8081FB01E20FF31FEC
:10157000E658FF4F80832F5F3F4F2430310579F7C6
:10158000FA014330510519F5109286001092870038
:101590001092880010928900C601BE010E94C80CFA
:1015A000CB018C0D9D1D0E9442042196C430D105B3
:1015B000F1F480E00E949B03C4010E94420408945D
:1015C000E11CF11CE614F7040CF4B1CF13C020E0C9
:1015D00030E0AF014F5F5F4FDA01AA0FBB1FAA0FC8
:1015E000BB1FBF01660F771F660F771FB8CFE0E004
:1015F000F0E0EDCFDF91CF911F910F91FF90EF9031
:10160000DF90CF90BF90AF909F908F907F906F9022
:101610000895CF92DF92EF92FF920F931F9386303F
:10162000910509F46CC087309105A4F482309105CE
:1016300099F18330910534F4009739F1019709F05D
:10164000D3C028C08430910509F447C005970CF039
:101650004DC03AC08930910509F467C08A309105C0
:1016600044F48730910509F455C0089709F0BCC0CF
:1016700053C08B30910509F46EC08B3091050CF48A
:1016800057C00C9709F0B0C0ADC088EE93E00E943F
:101690004F05AAC021E02BC080E00E949B0321E0FF
:1016A00030E044EF51E061E070E084E690E00E94B9
:1016B000390920E030E044EF51E061E070E084E679
:1016C00090E00E94390990C040ED57E064EF71E06E
:1016D00086E990E00E94030A87C048EE53E06BE47D
:1016E00070E081E090E00E9415067EC022E043E0B9
:1016F00064EF71E086E990E00E945B0675C024EF1C
:1017000031E048EB5BE068E873E184E190E00E943F
:101710007F0A6AC023E0EBCF48EE53E062E370E05B
:1017200081E090E00E94D3055FC00E94E8095CC0A0
:1017300061E070E088EC90E00E94E10880ED97E0C5
:101740000E94420460E070E088EC90E00E94E108B2
:1017500088EE93E044C084E6C82E80E0D82E48EEA0
:1017600053E061E08C2D0E94FB0480ED97E00E9425
:10177000420402E6E02E00E0F02E48EE53E061E085
:101780008E2D0E94FB0480ED97E00E94420400E64B
:1017900010E048EE53E061E0802F0E94FB0480EDF2
:1017A00097E00E94420448EE53E060E08C2D0E94D6
:1017B000FB0480ED97E00E94420448EE53E060E0B5
:1017C0008E2D0E94FB0480ED97E00E94420448EEBB
:1017D00053E060E0802F0E94FB0480ED97E00E94C0
:1017E000420402C00E946F041F910F91FF90EF907E
:1017F000DF90CF900895CF93DF930E9423040E943F
:10180000520410928A007894C0E0D0E0CE010E9489
:10181000090B2196CD30D105CCF3F6CF7F928F9274
:101820009F92AF92BF92CF92DF92EF92FF920F936F
:101830001F93CF93DF93782E4B015A0180E00E94D3
:101840009B03C72CDD24F601EE0FFF1FEE0FFF1FD9
:10185000E658FF4F8FE0808381838283838300E19A
:101860000E94B80C64E070E00E94C80C7C010E94E9
:10187000B80C64E070E00E94C80CEC01682F70E0C6
:10188000A6018E2D90E00E946500882351F09401FE
:10189000472D6C2F8E2D0E948F05C5010E9442049A
:1018A00001500023E9F6DF91CF911F910F91FF9036
:1018B000EF90DF90CF90BF90AF909F908F907F90F0
:1018C0000895A0E0B0E0E7E6FCE00C94310DEC01F7
:1018D000688179818A819B816115710581059105F6
:1018E00049F484E2A82E89EDB82E8BE5C82E87E056
:1018F000D82E02C05B016C01C601B5012DE133EFAA
:1019000041E050E00E940E0D27EA31E440E050E053
:101910000E94EF0C7B018C01C601B5012DE133EF74
:1019200041E050E00E940E0DCA01B90124E13BE004
:1019300040E050E00E94EF0CE61AF70A080B190B82
:1019400017FF08C08FEF9FEFAFEFBFE7E80EF91E5C
:101950000A1F1B1FE882F9820A831B83C7019F7736
:10196000EAE0CDB7DEB70C944D0D0E94610C0895EE
:1019700086E690E00E94610C0895A0E0B0E08093BC
:10198000660090936700A0936800B0936900089583
:1019900097FB092E07260AD077FD04D00CD006D07D
:1019A00000201AF4709561957F4F0895F6F7909591
:1019B00081959F4F0895AA1BBB1B51E107C0AA1F29
:1019C000BB1FA617B70710F0A61BB70B881F991FE0
:1019D0005A95A9F780959095BC01CD010895629F15
:1019E000D001739FF001829FE00DF11D649FE00D17
:1019F000F11D929FF00D839FF00D749FF00D659F78
:101A0000F00D9927729FB00DE11DF91F639FB00D76
:101A1000E11DF91FBD01CF011124089597FB092E87
:101A200005260ED057FD04D04BD00AD0001C38F448
:101A300050954095309521953F4F4F4F5F4F0895FA
:101A4000F6F790958095709561957F4F8F4F9F4FDA
:101A500008952F923F924F925F926F927F928F9252
:101A60009F92AF92BF92CF92DF92EF92FF920F932D
:101A70001F93CF93DF93CDB7DEB7CA1BDB0B0FB637
:101A8000F894DEBF0FBECDBF09942A8839884888F4
:101A90005F846E847D848C849B84AA84B984C8848A
:101AA000DF80EE80FD800C811B81AA81B981CE0F81
:101AB000D11D0FB6F894DEBF0FBECDBFED01089566
:101AC000A1E21A2EAA1BBB1BFD010DC0AA1FBB1F42
:101AD000EE1FFF1FA217B307E407F50720F0A21BB4
:101AE000B30BE40BF50B661F771F881F991F1A9421
:101AF00069F760957095809590959B01AC01BD014B
:061B0000CF010895FFCFA4
:0A1B0600780079007A000100000069
:00000001FF
